{
  "_format": "hh3-artifact-1",
  "contractName": "AgentSafeWallet",
  "sourceName": "contracts/AgentSafeWallet.sol",
  "abi": [
    {
      "inputs": [
        {
          "internalType": "address",
          "name": "_owner",
          "type": "address"
        },
        {
          "internalType": "address",
          "name": "_executor",
          "type": "address"
        }
      ],
      "stateMutability": "nonpayable",
      "type": "constructor"
    },
    {
      "anonymous": false,
      "inputs": [
        {
          "indexed": true,
          "internalType": "address",
          "name": "newExecutor",
          "type": "address"
        }
      ],
      "name": "ExecutorUpdated",
      "type": "event"
    },
    {
      "anonymous": false,
      "inputs": [
        {
          "indexed": true,
          "internalType": "address",
          "name": "to",
          "type": "address"
        },
        {
          "indexed": false,
          "internalType": "uint256",
          "name": "amount",
          "type": "uint256"
        }
      ],
      "name": "TransferExecuted",
      "type": "event"
    },
    {
      "inputs": [
        {
          "internalType": "address payable",
          "name": "to",
          "type": "address"
        },
        {
          "internalType": "uint256",
          "name": "amount",
          "type": "uint256"
        }
      ],
      "name": "executeTransfer",
      "outputs": [],
      "stateMutability": "nonpayable",
      "type": "function"
    },
    {
      "inputs": [],
      "name": "executor",
      "outputs": [
        {
          "internalType": "address",
          "name": "",
          "type": "address"
        }
      ],
      "stateMutability": "view",
      "type": "function"
    },
    {
      "inputs": [],
      "name": "owner",
      "outputs": [
        {
          "internalType": "address",
          "name": "",
          "type": "address"
        }
      ],
      "stateMutability": "view",
      "type": "function"
    },
    {
      "inputs": [
        {
          "internalType": "address",
          "name": "_executor",
          "type": "address"
        }
      ],
      "name": "setExecutor",
      "outputs": [],
      "stateMutability": "nonpayable",
      "type": "function"
    },
    {
      "stateMutability": "payable",
      "type": "receive"
    }
  ],
  "bytecode": "0x608060405234801562000010575f80fd5b5060405162000cb438038062000cb4833981810160405281019062000036919062000204565b5f73ffffffffffffffffffffffffffffffffffffffff168273ffffffffffffffffffffffffffffffffffffffff1603620000a7576040517f08c379a00000000000000000000000000000000000000000000000000000000081526004016200009e90620002a7565b60405180910390fd5b5f73ffffffffffffffffffffffffffffffffffffffff168173ffffffffffffffffffffffffffffffffffffffff160362000118576040517f08c379a00000000000000000000000000000000000000000000000000000000081526004016200010f9062000315565b60405180910390fd5b815f806101000a81548173ffffffffffffffffffffffffffffffffffffffff021916908373ffffffffffffffffffffffffffffffffffffffff1602179055508060015f6101000a81548173ffffffffffffffffffffffffffffffffffffffff021916908373ffffffffffffffffffffffffffffffffffffffff160217905550505062000335565b5f80fd5b5f73ffffffffffffffffffffffffffffffffffffffff82169050919050565b5f620001ce82620001a3565b9050919050565b620001e081620001c2565b8114620001eb575f80fd5b50565b5f81519050620001fe81620001d5565b92915050565b5f80604083850312156200021d576200021c6200019f565b5b5f6200022c85828601620001ee565b92505060206200023f85828601620001ee565b9150509250929050565b5f82825260208201905092915050565b7f4f776e65722063616e6e6f74206265207a65726f2061646472657373000000005f82015250565b5f6200028f601c8362000249565b91506200029c8262000259565b602082019050919050565b5f6020820190508181035f830152620002c08162000281565b9050919050565b7f4578656375746f722063616e6e6f74206265207a65726f2061646472657373005f82015250565b5f620002fd601f8362000249565b91506200030a82620002c7565b602082019050919050565b5f6020820190508181035f8301526200032e81620002ef565b9050919050565b61097180620003435f395ff3fe608060405260043610610042575f3560e01c80631c3c0ea81461004d5780638da5cb5b14610075578063c34c08e51461009f578063fd6b73ad146100c957610049565b3661004957005b5f80fd5b348015610058575f80fd5b50610073600480360381019061006e9190610553565b6100f1565b005b348015610080575f80fd5b50610089610272565b604051610096919061058d565b60405180910390f35b3480156100aa575f80fd5b506100b3610295565b6040516100c0919061058d565b60405180910390f35b3480156100d4575f80fd5b506100ef60048036038101906100ea9190610614565b6102ba565b005b5f8054906101000a900473ffffffffffffffffffffffffffffffffffffffff1673ffffffffffffffffffffffffffffffffffffffff163373ffffffffffffffffffffffffffffffffffffffff161461017e576040517f08c379a0000000000000000000000000000000000000000000000000000000008152600401610175906106ac565b60405180910390fd5b5f73ffffffffffffffffffffffffffffffffffffffff168173ffffffffffffffffffffffffffffffffffffffff16036101ec576040517f08c379a00000000000000000000000000000000000000000000000000000000081526004016101e390610714565b60405180910390fd5b8060015f6101000a81548173ffffffffffffffffffffffffffffffffffffffff021916908373ffffffffffffffffffffffffffffffffffffffff1602179055508073ffffffffffffffffffffffffffffffffffffffff167fd9436ef9ce00ffeabc5da2489701502d3bd1a5ed7b254a1981fc5ffef9828e1160405160405180910390a250565b5f8054906101000a900473ffffffffffffffffffffffffffffffffffffffff1681565b60015f9054906101000a900473ffffffffffffffffffffffffffffffffffffffff1681565b60015f9054906101000a900473ffffffffffffffffffffffffffffffffffffffff1673ffffffffffffffffffffffffffffffffffffffff163373ffffffffffffffffffffffffffffffffffffffff1614610349576040517f08c379a00000000000000000000000000000000000000000000000000000000081526004016103409061077c565b60405180910390fd5b5f73ffffffffffffffffffffffffffffffffffffffff168273ffffffffffffffffffffffffffffffffffffffff16036103b7576040517f08c379a00000000000000000000000000000000000000000000000000000000081526004016103ae906107e4565b60405180910390fd5b804710156103fa576040517f08c379a00000000000000000000000000000000000000000000000000000000081526004016103f19061084c565b60405180910390fd5b5f8273ffffffffffffffffffffffffffffffffffffffff168260405161041f90610897565b5f6040518083038185875af1925050503d805f8114610459576040519150601f19603f3d011682016040523d82523d5f602084013e61045e565b606091505b50509050806104a2576040517f08c379a0000000000000000000000000000000000000000000000000000000008152600401610499906108f5565b60405180910390fd5b8273ffffffffffffffffffffffffffffffffffffffff167f9a1fd8511a9f728f23ed3cb955318fe1f8b2bc7c3aeea602c7f7ecf959a46939836040516104e89190610922565b60405180910390a2505050565b5f80fd5b5f73ffffffffffffffffffffffffffffffffffffffff82169050919050565b5f610522826104f9565b9050919050565b61053281610518565b811461053c575f80fd5b50565b5f8135905061054d81610529565b92915050565b5f60208284031215610568576105676104f5565b5b5f6105758482850161053f565b91505092915050565b61058781610518565b82525050565b5f6020820190506105a05f83018461057e565b92915050565b5f6105b0826104f9565b9050919050565b6105c0816105a6565b81146105ca575f80fd5b50565b5f813590506105db816105b7565b92915050565b5f819050919050565b6105f3816105e1565b81146105fd575f80fd5b50565b5f8135905061060e816105ea565b92915050565b5f806040838503121561062a576106296104f5565b5b5f610637858286016105cd565b925050602061064885828601610600565b9150509250929050565b5f82825260208201905092915050565b7f4f6e6c79206f776e65722063616e2063616c6c207468697300000000000000005f82015250565b5f610696601883610652565b91506106a182610662565b602082019050919050565b5f6020820190508181035f8301526106c38161068a565b9050919050565b7f4578656375746f722063616e6e6f74206265207a65726f2061646472657373005f82015250565b5f6106fe601f83610652565b9150610709826106ca565b602082019050919050565b5f6020820190508181035f83015261072b816106f2565b9050919050565b7f4f6e6c79206578656375746f722063616e2063616c6c207468697300000000005f82015250565b5f610766601b83610652565b915061077182610732565b602082019050919050565b5f6020820190508181035f8301526107938161075a565b9050919050565b7f43616e6e6f74207472616e7366657220746f207a65726f2061646472657373005f82015250565b5f6107ce601f83610652565b91506107d98261079a565b602082019050919050565b5f6020820190508181035f8301526107fb816107c2565b9050919050565b7f496e73756666696369656e742062616c616e63650000000000000000000000005f82015250565b5f610836601483610652565b915061084182610802565b602082019050919050565b5f6020820190508181035f8301526108638161082a565b9050919050565b5f81905092915050565b50565b5f6108825f8361086a565b915061088d82610874565b5f82019050919050565b5f6108a182610877565b9150819050919050565b7f5472616e73666572206661696c656400000000000000000000000000000000005f82015250565b5f6108df600f83610652565b91506108ea826108ab565b602082019050919050565b5f6020820190508181035f83015261090c816108d3565b9050919050565b61091c816105e1565b82525050565b5f6020820190506109355f830184610913565b9291505056fea26469706673582212204e4cfcfc6b0c5e705390ea7e7dd8c22ad79be9cf9d54db406d190af7f9b517a964736f6c63430008180033",
  "linkReferences": {},
  "deployedLinkReferences": {},
  "immutableReferences": {},
  "inputSourceName": "project/contracts/AgentSafeWallet.sol",
  "buildInfoId": "solc-0_8_24-b0ff2c491dfffa0dc12ca593ac1c2858b36fc08d"
}